{
  "_format": "hh-sol-artifact-1",
  "contractName": "TreasuryHunt",
  "sourceName": "contracts/v1/TreasuryHunt.sol",
  "abi": [
    {
      "inputs": [
        {
          "internalType": "address",
          "name": "_prizeTokenAddress",
          "type": "address"
        },
        {
          "internalType": "address",
          "name": "_feeToken",
          "type": "address"
        },
        {
          "internalType": "address",
          "name": "_treasury",
          "type": "address"
        },
        {
          "internalType": "address",
          "name": "_stakingPool",
          "type": "address"
        }
      ],
      "stateMutability": "nonpayable",
      "type": "constructor"
    },
    {
      "anonymous": false,
      "inputs": [
        {
          "indexed": true,
          "internalType": "address",
          "name": "previousOwner",
          "type": "address"
        },
        {
          "indexed": true,
          "internalType": "address",
          "name": "newOwner",
          "type": "address"
        }
      ],
      "name": "OwnershipTransferred",
      "type": "event"
    },
    {
      "inputs": [],
      "name": "DEFAULT_FEE_INCREASE_DURATION",
      "outputs": [
        {
          "internalType": "uint256",
          "name": "",
          "type": "uint256"
        }
      ],
      "stateMutability": "view",
      "type": "function"
    },
    {
      "inputs": [],
      "name": "DEFAULT_GAME_DURATION",
      "outputs": [
        {
          "internalType": "uint256",
          "name": "",
          "type": "uint256"
        }
      ],
      "stateMutability": "view",
      "type": "function"
    },
    {
      "inputs": [],
      "name": "FEE_TOKEN_DECIMAL",
      "outputs": [
        {
          "internalType": "uint256",
          "name": "",
          "type": "uint256"
        }
      ],
      "stateMutability": "view",
      "type": "function"
    },
    {
      "inputs": [],
      "name": "PRIZE_DISTRIBUTION_GAME_CREATOR",
      "outputs": [
        {
          "internalType": "uint256",
          "name": "",
          "type": "uint256"
        }
      ],
      "stateMutability": "view",
      "type": "function"
    },
    {
      "inputs": [],
      "name": "PRIZE_DISTRIBUTION_LOTTERY",
      "outputs": [
        {
          "internalType": "uint256",
          "name": "",
          "type": "uint256"
        }
      ],
      "stateMutability": "view",
      "type": "function"
    },
    {
      "inputs": [],
      "name": "PRIZE_DISTRIBUTION_TOKEN_STACKERS",
      "outputs": [
        {
          "internalType": "uint256",
          "name": "",
          "type": "uint256"
        }
      ],
      "stateMutability": "view",
      "type": "function"
    },
    {
      "inputs": [],
      "name": "PRIZE_DISTRIBUTION_TREASURY",
      "outputs": [
        {
          "internalType": "uint256",
          "name": "",
          "type": "uint256"
        }
      ],
      "stateMutability": "view",
      "type": "function"
    },
    {
      "inputs": [],
      "name": "PRIZE_TOKEN_DECIMAL",
      "outputs": [
        {
          "internalType": "uint256",
          "name": "",
          "type": "uint256"
        }
      ],
      "stateMutability": "view",
      "type": "function"
    },
    {
      "inputs": [
        {
          "internalType": "uint256",
          "name": "_index",
          "type": "uint256"
        }
      ],
      "name": "claimCreatorReward",
      "outputs": [],
      "stateMutability": "nonpayable",
      "type": "function"
    },
    {
      "inputs": [
        {
          "internalType": "uint256",
          "name": "_index",
          "type": "uint256"
        }
      ],
      "name": "claimLotteryReward",
      "outputs": [],
      "stateMutability": "nonpayable",
      "type": "function"
    },
    {
      "inputs": [
        {
          "internalType": "uint256",
          "name": "_index",
          "type": "uint256"
        }
      ],
      "name": "claimWinnerPrize",
      "outputs": [],
      "stateMutability": "nonpayable",
      "type": "function"
    },
    {
      "inputs": [
        {
          "internalType": "uint256",
          "name": "_prizeAmount",
          "type": "uint256"
        }
      ],
      "name": "createGame",
      "outputs": [],
      "stateMutability": "nonpayable",
      "type": "function"
    },
    {
      "inputs": [
        {
          "internalType": "address",
          "name": "",
          "type": "address"
        },
        {
          "internalType": "uint256",
          "name": "",
          "type": "uint256"
        }
      ],
      "name": "creatorRewardList",
      "outputs": [
        {
          "internalType": "uint256",
          "name": "gameId",
          "type": "uint256"
        },
        {
          "internalType": "bool",
          "name": "isClaimed",
          "type": "bool"
        },
        {
          "internalType": "uint256",
          "name": "amount",
          "type": "uint256"
        }
      ],
      "stateMutability": "view",
      "type": "function"
    },
    {
      "inputs": [
        {
          "internalType": "uint256",
          "name": "_gameId",
          "type": "uint256"
        }
      ],
      "name": "endGame",
      "outputs": [],
      "stateMutability": "nonpayable",
      "type": "function"
    },
    {
      "inputs": [],
      "name": "feeToken",
      "outputs": [
        {
          "internalType": "contract IERC20",
          "name": "",
          "type": "address"
        }
      ],
      "stateMutability": "view",
      "type": "function"
    },
    {
      "inputs": [],
      "name": "gameIdCounter",
      "outputs": [
        {
          "internalType": "uint256",
          "name": "",
          "type": "uint256"
        }
      ],
      "stateMutability": "view",
      "type": "function"
    },
    {
      "inputs": [
        {
          "internalType": "uint256",
          "name": "",
          "type": "uint256"
        }
      ],
      "name": "games",
      "outputs": [
        {
          "internalType": "bool",
          "name": "isSettled",
          "type": "bool"
        },
        {
          "internalType": "uint256",
          "name": "gameId",
          "type": "uint256"
        },
        {
          "internalType": "address",
          "name": "creator",
          "type": "address"
        },
        {
          "internalType": "uint256",
          "name": "prizeAmount",
          "type": "uint256"
        },
        {
          "internalType": "uint256",
          "name": "totalFeeAmount",
          "type": "uint256"
        },
        {
          "internalType": "uint256",
          "name": "startTime",
          "type": "uint256"
        },
        {
          "internalType": "uint256",
          "name": "deadline",
          "type": "uint256"
        },
        {
          "internalType": "address",
          "name": "winner",
          "type": "address"
        },
        {
          "components": [
            {
              "internalType": "uint256",
              "name": "randomNumber",
              "type": "uint256"
            },
            {
              "internalType": "address",
              "name": "winner",
              "type": "address"
            },
            {
              "internalType": "address[]",
              "name": "tickets",
              "type": "address[]"
            }
          ],
          "internalType": "struct TreasuryHunt.Lottery",
          "name": "lottery",
          "type": "tuple"
        }
      ],
      "stateMutability": "view",
      "type": "function"
    },
    {
      "inputs": [
        {
          "internalType": "uint256",
          "name": "_gameId",
          "type": "uint256"
        },
        {
          "internalType": "uint256",
          "name": "_start",
          "type": "uint256"
        },
        {
          "internalType": "uint256",
          "name": "_end",
          "type": "uint256"
        }
      ],
      "name": "getGameParticipantList",
      "outputs": [
        {
          "internalType": "address[]",
          "name": "",
          "type": "address[]"
        }
      ],
      "stateMutability": "view",
      "type": "function"
    },
    {
      "inputs": [
        {
          "internalType": "uint256",
          "name": "_gameId",
          "type": "uint256"
        }
      ],
      "name": "getLotteryInfo",
      "outputs": [
        {
          "internalType": "uint256",
          "name": "randomNumber",
          "type": "uint256"
        },
        {
          "internalType": "uint256",
          "name": "participantCount",
          "type": "uint256"
        },
        {
          "internalType": "address",
          "name": "winner",
          "type": "address"
        }
      ],
      "stateMutability": "view",
      "type": "function"
    },
    {
      "inputs": [],
      "name": "initFeeAmount",
      "outputs": [
        {
          "internalType": "uint256",
          "name": "",
          "type": "uint256"
        }
      ],
      "stateMutability": "view",
      "type": "function"
    },
    {
      "inputs": [
        {
          "internalType": "uint256",
          "name": "_gameId",
          "type": "uint256"
        }
      ],
      "name": "joinGame",
      "outputs": [],
      "stateMutability": "nonpayable",
      "type": "function"
    },
    {
      "inputs": [
        {
          "internalType": "address",
          "name": "",
          "type": "address"
        },
        {
          "internalType": "uint256",
          "name": "",
          "type": "uint256"
        }
      ],
      "name": "lotteryRewardList",
      "outputs": [
        {
          "internalType": "uint256",
          "name": "gameId",
          "type": "uint256"
        },
        {
          "internalType": "bool",
          "name": "isClaimed",
          "type": "bool"
        },
        {
          "internalType": "uint256",
          "name": "amount",
          "type": "uint256"
        }
      ],
      "stateMutability": "view",
      "type": "function"
    },
    {
      "inputs": [],
      "name": "owner",
      "outputs": [
        {
          "internalType": "address",
          "name": "",
          "type": "address"
        }
      ],
      "stateMutability": "view",
      "type": "function"
    },
    {
      "inputs": [],
      "name": "prizeToken",
      "outputs": [
        {
          "internalType": "contract IERC20",
          "name": "",
          "type": "address"
        }
      ],
      "stateMutability": "view",
      "type": "function"
    },
    {
      "inputs": [],
      "name": "renounceOwnership",
      "outputs": [],
      "stateMutability": "nonpayable",
      "type": "function"
    },
    {
      "inputs": [],
      "name": "stakingPool",
      "outputs": [
        {
          "internalType": "address",
          "name": "",
          "type": "address"
        }
      ],
      "stateMutability": "view",
      "type": "function"
    },
    {
      "inputs": [
        {
          "internalType": "address",
          "name": "newOwner",
          "type": "address"
        }
      ],
      "name": "transferOwnership",
      "outputs": [],
      "stateMutability": "nonpayable",
      "type": "function"
    },
    {
      "inputs": [],
      "name": "treasury",
      "outputs": [
        {
          "internalType": "address",
          "name": "",
          "type": "address"
        }
      ],
      "stateMutability": "view",
      "type": "function"
    },
    {
      "inputs": [
        {
          "internalType": "address",
          "name": "",
          "type": "address"
        },
        {
          "internalType": "uint256",
          "name": "",
          "type": "uint256"
        }
      ],
      "name": "userParticipationAmount",
      "outputs": [
        {
          "internalType": "uint256",
          "name": "",
          "type": "uint256"
        }
      ],
      "stateMutability": "view",
      "type": "function"
    },
    {
      "inputs": [
        {
          "internalType": "address",
          "name": "",
          "type": "address"
        },
        {
          "internalType": "uint256",
          "name": "",
          "type": "uint256"
        }
      ],
      "name": "winnerPrizeList",
      "outputs": [
        {
          "internalType": "uint256",
          "name": "gameId",
          "type": "uint256"
        },
        {
          "internalType": "bool",
          "name": "isClaimed",
          "type": "bool"
        },
        {
          "internalType": "uint256",
          "name": "amount",
          "type": "uint256"
        }
      ],
      "stateMutability": "view",
      "type": "function"
    }
  ],
  "bytecode": "0x60806040523480156200001157600080fd5b5060405162001fc138038062001fc1833981016040819052620000349162000112565b6200003f33620000a5565b600a80546001600160a01b038087166001600160a01b0319928316178355600b8054878316908416179055600980548683169084161790556008805491851691909216179055620000939060069062000284565b60025550506001805550620002999050565b600080546001600160a01b038381166001600160a01b0319831681178455604051919092169283917f8be0079c531659141344cd1fd0a4f28419497f9722a3daafe3b4186f6b6457e09190a35050565b80516001600160a01b03811681146200010d57600080fd5b919050565b600080600080608085870312156200012957600080fd5b6200013485620000f5565b93506200014460208601620000f5565b92506200015460408601620000f5565b91506200016460608601620000f5565b905092959194509250565b634e487b7160e01b600052601160045260246000fd5b600181815b80851115620001c6578160001904821115620001aa57620001aa6200016f565b80851615620001b857918102915b93841c93908002906200018a565b509250929050565b600082620001df575060016200027e565b81620001ee575060006200027e565b8160018114620002075760028114620002125762000232565b60019150506200027e565b60ff8411156200022657620002266200016f565b50506001821b6200027e565b5060208310610133831016604e8410600b841016171562000257575081810a6200027e565b62000263838362000185565b80600019048211156200027a576200027a6200016f565b0290505b92915050565b6000620002928383620001ce565b9392505050565b611d1880620002a96000396000f3fe608060405234801561001057600080fd5b50600436106101da5760003560e01c80637d84ab6811610104578063cdc601ee116100a2578063e379010e11610071578063e379010e146103f5578063ef2710501461035b578063efaa55a014610408578063f2fde38b1461041b57600080fd5b8063cdc601ee146103a9578063d0399bb8146103bc578063d0ef024a146103cf578063e2abb1df146103e257600080fd5b8063b25156ad116100de578063b25156ad1461035b578063b6f10e3214610363578063ba2f036214610376578063c9ee586a1461038957600080fd5b80637d84ab68146103425780638da5cb5b1461034a578063a645a2b71461023757600080fd5b80634d80052c1161017c578063715018a61161014b578063715018a6146102fb578063732b0d441461030357806376b3c8a81461030b5780637adcc14e1461023757600080fd5b80634d80052c1461029f5780635bdfe790146102cd57806361d027b3146102d5578063647846a5146102e857600080fd5b80631bb412d6116101b85780631bb412d61461024d5780632018a58f146102565780633e22592a1461028157806348e837b91461028a57600080fd5b80630c56ae3b146101df578063117a5b901461020f57806312b3e70e14610237575b600080fd5b6008546101f2906001600160a01b031681565b6040516001600160a01b0390911681526020015b60405180910390f35b61022261021d366004611879565b61042e565b60405161020699989796959493929190611892565b61023f603c81565b604051908152602001610206565b61023f60015481565b61023f610264366004611968565b600460209081526000928352604080842090915290825290205481565b61023f60025481565b61029d610298366004611879565b610554565b005b6102b26102ad366004611968565b610739565b60408051938452911515602084015290820152606001610206565b61023f601281565b6009546101f2906001600160a01b031681565b600b546101f2906001600160a01b031681565b61029d61077f565b61023f600681565b61031e610319366004611879565b610793565b6040805193845260208401929092526001600160a01b031690820152606001610206565b61023f601481565b6000546001600160a01b03166101f2565b61023f600a81565b61029d610371366004611879565b6108e3565b61029d610384366004611879565b6109cd565b61039c610397366004611992565b610a1c565b60405161020691906119be565b6102b26103b7366004611968565b610cc0565b61029d6103ca366004611879565b610cdc565b600a546101f2906001600160a01b031681565b61029d6103f0366004611879565b6110af565b6102b2610403366004611968565b611195565b61029d610416366004611879565b6111b1565b61029d610429366004611a0b565b61133d565b60036020528060005260406000206000915090508060000160009054906101000a900460ff16908060010154908060020160009054906101000a90046001600160a01b0316908060030154908060040154908060050154908060060154908060070160009054906101000a90046001600160a01b03169080600801604051806060016040529081600082015481526020016001820160009054906101000a90046001600160a01b03166001600160a01b03166001600160a01b031681526020016002820180548060200260200160405190810160405280929190818152602001828054801561054657602002820191906000526020600020905b81546001600160a01b03168152600190910190602001808311610528575b505050505081525050905089565b600081116105b95760405162461bcd60e51b815260206004820152602760248201527f5072697a6520616d6f756e74206d75737420626520677265617465722074686160448201526637103d32b9379760c91b60648201526084015b60405180910390fd5b60015460408051606080820183526000808352602083015291810191909152604051806101200160405280600015158152602001838152602001336001600160a01b0316815260200184815260200160008152602001428152602001610629603c426113b690919063ffffffff16565b81526000602080830182905260409283018590528582526003808252918390208451815460ff1916901515178155848201516001820155848401516002820180546001600160a01b03199081166001600160a01b03938416179091556060870151948301949094556080860151600483015560a0860151600583015560c0860151600683015560e086015160078301805486169183169190911790556101008601518051600884019081558185015160098501805490971693169290921790945593830151805191949261070592600a870192909101906117e1565b5050600180546107199450925090506113b6565b600155600a54610734906001600160a01b03163330866113cb565b505050565b6005602052816000526040600020818154811061075557600080fd5b600091825260209091206003909102018054600182015460029092015490935060ff909116915083565b61078761143c565b6107916000611496565b565b6000818152600360208181526040808420815161012081018352815460ff161515815260018201548185015260028201546001600160a01b03908116828501529482015460608083019190915260048301546080830152600583015460a0830152600683015460c08301526007830154861660e0830152835190810184526008830180548252600984015490961681860152600a83018054855181880281018801875281815289988998899896979661010089019695929490860193929183018282801561088a57602002820191906000526020600020905b81546001600160a01b0316815260019091019060200180831161086c575b5050509190925250505090525060408101519091506001600160a01b03166108c45760405162461bcd60e51b81526004016105b090611a26565b6101000151805160408201515160209092015190969195509350915050565b3360009081526007602052604090205481106109115760405162461bcd60e51b81526004016105b090611a54565b33600090815260076020526040812080548390811061093257610932611a80565b60009182526020909120600390910201600181015490915060ff161561099a5760405162461bcd60e51b815260206004820152601b60248201527f5468652072657761726420686173206265656e20636c61696d6564000000000060448201526064016105b0565b6001818101805460ff191690911790556002810154600b546109c9916001600160a01b039091169033906114e6565b5050565b3360009081526006602052604090205481106109fb5760405162461bcd60e51b81526004016105b090611a54565b33600090815260066020526040812080548390811061093257610932611a80565b6000838152600360208181526040808420815161012081018352815460ff161515815260018201548185015260028201546001600160a01b03908116828501529482015460608281019190915260048301546080830152600583015460a0830152600683015460c08301526007830154861660e0830152835180820185526008840180548252600985015490971681870152600a840180548651818902810189018852818152939998949795966101008901969395949086019390929190830182828015610b1357602002820191906000526020600020905b81546001600160a01b03168152600190910190602001808311610af5575b5050509190925250505090525060408101519091506001600160a01b0316610b4d5760405162461bcd60e51b81526004016105b090611a26565b82841115610b925760405162461bcd60e51b8152602060048201526012602482015271496e646578206f7574206f662072616e676560701b60448201526064016105b0565b8281610100015160400151511115610be15760405162461bcd60e51b8152602060048201526012602482015271496e646578206f7574206f662072616e676560701b60448201526064016105b0565b6000610bf86001610bf28688611516565b906113b6565b67ffffffffffffffff811115610c1057610c10611a96565b604051908082528060200260200182016040528015610c39578160200160208202803683370190505b509050845b848111610cb657826101000151604001518681518110610c6057610c60611a80565b602002602001015182610c7c888461151690919063ffffffff16565b81518110610c8c57610c8c611a80565b6001600160a01b039092166020928302919091019091015280610cae81611ac2565b915050610c3e565b5095945050505050565b6006602052816000526040600020818154811061075557600080fd5b600081815260036020526040902060028101546001600160a01b0316610d145760405162461bcd60e51b81526004016105b090611a26565b4281600601541115610d5b5760405162461bcd60e51b815260206004820152601060248201526f23b0b6b29034b99037b733b7b4b7339760811b60448201526064016105b0565b805460ff1615610da65760405162461bcd60e51b815260206004820152601660248201527523b0b6b2903430b9903132b2b71039b2ba3a3632b21760511b60448201526064016105b0565b805460ff1916600117815560078101546001600160a01b031615801590610dd1575060008160040154115b156110375760078101546001600160a01b0316600090815260056020908152604080832081516060810183526001808701548252818501868152600380890154958401958652845480840186559488529587209251939095029091019182559251928101805460ff191693151593909317909255516002909101556004820154610e6990606490610e6390603c611522565b9061152e565b90506000610e8a6064610e636014866004015461152290919063ffffffff16565b90506000610eab6064610e63600a876004015461152290919063ffffffff16565b90506000610ecc6064610e63600a886004015461152290919063ffffffff16565b6002868101546001600160a01b0316600090815260066020908152604080832081516060810183526001808d015482528185018681529382018c8152835480830185559387529490952090516003909202019081559051928101805460ff191693151593909317909255519101559050610f4461153a565b60088601819055600a860180549091610f5c91611573565b81548110610f6c57610f6c611a80565b60009182526020808320909101546009880180546001600160a01b0319166001600160a01b039283169081179091558352600782526040808420815160608101835260018b8101548252818601878152938201888152835480830185559388529590962090516003909202019081559051938101805494151560ff19909516949094179093559051600290920191909155600854600b54611012929081169116856114e6565b600954600b5461102f916001600160a01b039182169116846114e6565b505050505050565b6002818101546001600160a01b031660009081526005602090815260408083208151606081018352600180880154825281850186815260039889015494830194855283548083018555938752949095209051919096029095019485559051918401805460ff1916921515929092179091555191015550565b3360009081526005602052604090205481106110dd5760405162461bcd60e51b81526004016105b090611a54565b3360009081526005602052604081208054839081106110fe576110fe611a80565b60009182526020909120600390910201600181015490915060ff16156111665760405162461bcd60e51b815260206004820152601a60248201527f546865207072697a6520686173206265656e20636c61696d656400000000000060448201526064016105b0565b6001818101805460ff191690911790556002810154600a546109c9916001600160a01b039091169033906114e6565b6007602052816000526040600020818154811061075557600080fd5b600081815260036020526040902060028101546001600160a01b03166111e95760405162461bcd60e51b81526004016105b090611a26565b428160060154116112305760405162461bcd60e51b815260206004820152601160248201527023b0b6b2903430b99032bc3834b932b21760791b60448201526064016105b0565b6007810180546001600160a01b0319163317905561124f42603c6113b6565b6006820155600a810180546001810182556000918252602082200180546001600160a01b031916331790556005820154600883019190611290904290611516565b905060006112c16112a36006600a611bbf565b6112ae84603c61152e565b6112b89190611bcb565b600254906113b6565b60048501549091506112d390826113b6565b6004808601919091553360009081526020918252604080822088835290925220546112fe90826113b6565b3360008181526004602090815260408083208a8452909152902091909155600b54611336916001600160a01b039091169030846113cb565b5050505050565b61134561143c565b6001600160a01b0381166113aa5760405162461bcd60e51b815260206004820152602660248201527f4f776e61626c653a206e6577206f776e657220697320746865207a65726f206160448201526564647265737360d01b60648201526084016105b0565b6113b381611496565b50565b60006113c28284611be2565b90505b92915050565b6040516001600160a01b03808516602483015283166044820152606481018290526114369085906323b872dd60e01b906084015b60408051601f198184030181529190526020810180516001600160e01b03166001600160e01b03199093169290921790915261157f565b50505050565b6000546001600160a01b031633146107915760405162461bcd60e51b815260206004820181905260248201527f4f776e61626c653a2063616c6c6572206973206e6f7420746865206f776e657260448201526064016105b0565b600080546001600160a01b038381166001600160a01b0319831681178455604051919092169283917f8be0079c531659141344cd1fd0a4f28419497f9722a3daafe3b4186f6b6457e09190a35050565b6040516001600160a01b03831660248201526044810182905261073490849063a9059cbb60e01b906064016113ff565b60006113c28284611bf5565b60006113c28284611bcb565b60006113c28284611c1e565b6000611544611846565b60208160008080738cc9c2e145d3aa946502964b1b69ce3cd066a9c7600019f161156d57600080fd5b51919050565b60006113c28284611c32565b60006115d4826040518060400160405280602081526020017f5361666545524332303a206c6f772d6c6576656c2063616c6c206661696c6564815250856001600160a01b03166116519092919063ffffffff16565b80519091501561073457808060200190518101906115f29190611c46565b6107345760405162461bcd60e51b815260206004820152602a60248201527f5361666545524332303a204552433230206f7065726174696f6e20646964206e6044820152691bdd081cdd58d8d9595960b21b60648201526084016105b0565b60606116608484600085611668565b949350505050565b6060824710156116c95760405162461bcd60e51b815260206004820152602660248201527f416464726573733a20696e73756666696369656e742062616c616e636520666f6044820152651c8818d85b1b60d21b60648201526084016105b0565b600080866001600160a01b031685876040516116e59190611c93565b60006040518083038185875af1925050503d8060008114611722576040519150601f19603f3d011682016040523d82523d6000602084013e611727565b606091505b509150915061173887838387611743565b979650505050505050565b606083156117b25782516000036117ab576001600160a01b0385163b6117ab5760405162461bcd60e51b815260206004820152601d60248201527f416464726573733a2063616c6c20746f206e6f6e2d636f6e747261637400000060448201526064016105b0565b5081611660565b61166083838151156117c75781518083602001fd5b8060405162461bcd60e51b81526004016105b09190611caf565b828054828255906000526020600020908101928215611836579160200282015b8281111561183657825182546001600160a01b0319166001600160a01b03909116178255602090920191600190910190611801565b50611842929150611864565b5090565b60405180602001604052806001906020820280368337509192915050565b5b808211156118425760008155600101611865565b60006020828403121561188b57600080fd5b5035919050565b60006101208b1515835260208b8185015260018060a01b03808c1660408601528a60608601528960808601528860a08601528760c086015280871660e08601528261010086015261018085018651848701528183880151166101408701526040870151935060606101608701528084518083526101a0880191508486019550600092505b8083101561193857855184168252948401946001929092019190840190611916565b509f9e505050505050505050505050505050565b80356001600160a01b038116811461196357600080fd5b919050565b6000806040838503121561197b57600080fd5b6119848361194c565b946020939093013593505050565b6000806000606084860312156119a757600080fd5b505081359360208301359350604090920135919050565b6020808252825182820181905260009190848201906040850190845b818110156119ff5783516001600160a01b0316835292840192918401916001016119da565b50909695505050505050565b600060208284031215611a1d57600080fd5b6113c28261194c565b60208082526014908201527323b0b6b2903237b2b9903737ba1032bc34b9ba1760611b604082015260600190565b602080825260129082015271696e646578206f7574206f662072616e676560701b604082015260600190565b634e487b7160e01b600052603260045260246000fd5b634e487b7160e01b600052604160045260246000fd5b634e487b7160e01b600052601160045260246000fd5b600060018201611ad457611ad4611aac565b5060010190565b600181815b80851115611b16578160001904821115611afc57611afc611aac565b80851615611b0957918102915b93841c9390800290611ae0565b509250929050565b600082611b2d575060016113c5565b81611b3a575060006113c5565b8160018114611b505760028114611b5a57611b76565b60019150506113c5565b60ff841115611b6b57611b6b611aac565b50506001821b6113c5565b5060208310610133831016604e8410600b8410161715611b99575081810a6113c5565b611ba38383611adb565b8060001904821115611bb757611bb7611aac565b029392505050565b60006113c28383611b1e565b80820281158282048414176113c5576113c5611aac565b808201808211156113c5576113c5611aac565b818103818111156113c5576113c5611aac565b634e487b7160e01b600052601260045260246000fd5b600082611c2d57611c2d611c08565b500490565b600082611c4157611c41611c08565b500690565b600060208284031215611c5857600080fd5b81518015158114611c6857600080fd5b9392505050565b60005b83811015611c8a578181015183820152602001611c72565b50506000910152565b60008251611ca5818460208701611c6f565b9190910192915050565b6020815260008251806020840152611cce816040850160208701611c6f565b601f01601f1916919091016040019291505056fea26469706673582212207764da07a5428a29d069c707b260a0aa4551506a7779a0dfc79572a8a7f011bc64736f6c63430008130033",
  "linkReferences": {},
  "deployedLinkReferences": {}
}