{
  "_format": "hh-sol-artifact-1",
  "contractName": "TreasureHunt",
  "sourceName": "contracts/v1/TreasureHunt.sol",
  "abi": [
    {
      "inputs": [
        {
          "internalType": "address",
          "name": "_prizeTokenAddress",
          "type": "address"
        },
        {
          "internalType": "address",
          "name": "_feeToken",
          "type": "address"
        },
        {
          "internalType": "address",
          "name": "_treasury",
          "type": "address"
        },
        {
          "internalType": "address",
          "name": "_stakingPool",
          "type": "address"
        }
      ],
      "stateMutability": "nonpayable",
      "type": "constructor"
    },
    {
      "anonymous": false,
      "inputs": [
        {
          "indexed": true,
          "internalType": "address",
          "name": "previousOwner",
          "type": "address"
        },
        {
          "indexed": true,
          "internalType": "address",
          "name": "newOwner",
          "type": "address"
        }
      ],
      "name": "OwnershipTransferred",
      "type": "event"
    },
    {
      "inputs": [],
      "name": "DEFAULT_FEE_INCREASE_DURATION",
      "outputs": [
        {
          "internalType": "uint256",
          "name": "",
          "type": "uint256"
        }
      ],
      "stateMutability": "view",
      "type": "function"
    },
    {
      "inputs": [],
      "name": "DEFAULT_GAME_DURATION",
      "outputs": [
        {
          "internalType": "uint256",
          "name": "",
          "type": "uint256"
        }
      ],
      "stateMutability": "view",
      "type": "function"
    },
    {
      "inputs": [],
      "name": "FEE_TOKEN_DECIMAL",
      "outputs": [
        {
          "internalType": "uint256",
          "name": "",
          "type": "uint256"
        }
      ],
      "stateMutability": "view",
      "type": "function"
    },
    {
      "inputs": [],
      "name": "PRIZE_DISTRIBUTION_GAME_CREATOR",
      "outputs": [
        {
          "internalType": "uint256",
          "name": "",
          "type": "uint256"
        }
      ],
      "stateMutability": "view",
      "type": "function"
    },
    {
      "inputs": [],
      "name": "PRIZE_DISTRIBUTION_LOTTERY",
      "outputs": [
        {
          "internalType": "uint256",
          "name": "",
          "type": "uint256"
        }
      ],
      "stateMutability": "view",
      "type": "function"
    },
    {
      "inputs": [],
      "name": "PRIZE_DISTRIBUTION_TOKEN_STACKERS",
      "outputs": [
        {
          "internalType": "uint256",
          "name": "",
          "type": "uint256"
        }
      ],
      "stateMutability": "view",
      "type": "function"
    },
    {
      "inputs": [],
      "name": "PRIZE_DISTRIBUTION_TREASURY",
      "outputs": [
        {
          "internalType": "uint256",
          "name": "",
          "type": "uint256"
        }
      ],
      "stateMutability": "view",
      "type": "function"
    },
    {
      "inputs": [],
      "name": "PRIZE_TOKEN_DECIMAL",
      "outputs": [
        {
          "internalType": "uint256",
          "name": "",
          "type": "uint256"
        }
      ],
      "stateMutability": "view",
      "type": "function"
    },
    {
      "inputs": [
        {
          "internalType": "uint256",
          "name": "_index",
          "type": "uint256"
        }
      ],
      "name": "claimCreatorReward",
      "outputs": [],
      "stateMutability": "nonpayable",
      "type": "function"
    },
    {
      "inputs": [
        {
          "internalType": "uint256",
          "name": "_index",
          "type": "uint256"
        }
      ],
      "name": "claimLotteryReward",
      "outputs": [],
      "stateMutability": "nonpayable",
      "type": "function"
    },
    {
      "inputs": [
        {
          "internalType": "uint256",
          "name": "_index",
          "type": "uint256"
        }
      ],
      "name": "claimWinnerPrize",
      "outputs": [],
      "stateMutability": "nonpayable",
      "type": "function"
    },
    {
      "inputs": [
        {
          "internalType": "uint256",
          "name": "_prizeAmount",
          "type": "uint256"
        }
      ],
      "name": "createGame",
      "outputs": [],
      "stateMutability": "nonpayable",
      "type": "function"
    },
    {
      "inputs": [
        {
          "internalType": "address",
          "name": "",
          "type": "address"
        },
        {
          "internalType": "uint256",
          "name": "",
          "type": "uint256"
        }
      ],
      "name": "creatorRewardList",
      "outputs": [
        {
          "internalType": "uint256",
          "name": "gameId",
          "type": "uint256"
        },
        {
          "internalType": "bool",
          "name": "isClaimed",
          "type": "bool"
        },
        {
          "internalType": "uint256",
          "name": "amount",
          "type": "uint256"
        }
      ],
      "stateMutability": "view",
      "type": "function"
    },
    {
      "inputs": [
        {
          "internalType": "uint256",
          "name": "_gameId",
          "type": "uint256"
        }
      ],
      "name": "endGame",
      "outputs": [],
      "stateMutability": "nonpayable",
      "type": "function"
    },
    {
      "inputs": [],
      "name": "feeToken",
      "outputs": [
        {
          "internalType": "contract IERC20",
          "name": "",
          "type": "address"
        }
      ],
      "stateMutability": "view",
      "type": "function"
    },
    {
      "inputs": [],
      "name": "gameIdCounter",
      "outputs": [
        {
          "internalType": "uint256",
          "name": "",
          "type": "uint256"
        }
      ],
      "stateMutability": "view",
      "type": "function"
    },
    {
      "inputs": [
        {
          "internalType": "uint256",
          "name": "",
          "type": "uint256"
        }
      ],
      "name": "games",
      "outputs": [
        {
          "internalType": "bool",
          "name": "isSettled",
          "type": "bool"
        },
        {
          "internalType": "uint256",
          "name": "gameId",
          "type": "uint256"
        },
        {
          "internalType": "address",
          "name": "creator",
          "type": "address"
        },
        {
          "internalType": "uint256",
          "name": "prizeAmount",
          "type": "uint256"
        },
        {
          "internalType": "uint256",
          "name": "totalFeeAmount",
          "type": "uint256"
        },
        {
          "internalType": "uint256",
          "name": "startTime",
          "type": "uint256"
        },
        {
          "internalType": "uint256",
          "name": "deadline",
          "type": "uint256"
        },
        {
          "internalType": "address",
          "name": "winner",
          "type": "address"
        },
        {
          "components": [
            {
              "internalType": "uint256",
              "name": "randomNumber",
              "type": "uint256"
            },
            {
              "internalType": "address",
              "name": "winner",
              "type": "address"
            },
            {
              "internalType": "address[]",
              "name": "tickets",
              "type": "address[]"
            }
          ],
          "internalType": "struct TreasureHunt.Lottery",
          "name": "lottery",
          "type": "tuple"
        }
      ],
      "stateMutability": "view",
      "type": "function"
    },
    {
      "inputs": [
        {
          "internalType": "uint256",
          "name": "_gameId",
          "type": "uint256"
        },
        {
          "internalType": "uint256",
          "name": "_start",
          "type": "uint256"
        },
        {
          "internalType": "uint256",
          "name": "_end",
          "type": "uint256"
        }
      ],
      "name": "getGameParticipantList",
      "outputs": [
        {
          "internalType": "address[]",
          "name": "",
          "type": "address[]"
        }
      ],
      "stateMutability": "view",
      "type": "function"
    },
    {
      "inputs": [],
      "name": "getGames",
      "outputs": [
        {
          "components": [
            {
              "internalType": "bool",
              "name": "isSettled",
              "type": "bool"
            },
            {
              "internalType": "uint256",
              "name": "gameId",
              "type": "uint256"
            },
            {
              "internalType": "address",
              "name": "creator",
              "type": "address"
            },
            {
              "internalType": "uint256",
              "name": "prizeAmount",
              "type": "uint256"
            },
            {
              "internalType": "uint256",
              "name": "totalFeeAmount",
              "type": "uint256"
            },
            {
              "internalType": "uint256",
              "name": "startTime",
              "type": "uint256"
            },
            {
              "internalType": "uint256",
              "name": "deadline",
              "type": "uint256"
            },
            {
              "internalType": "address",
              "name": "winner",
              "type": "address"
            },
            {
              "components": [
                {
                  "internalType": "uint256",
                  "name": "randomNumber",
                  "type": "uint256"
                },
                {
                  "internalType": "address",
                  "name": "winner",
                  "type": "address"
                },
                {
                  "internalType": "address[]",
                  "name": "tickets",
                  "type": "address[]"
                }
              ],
              "internalType": "struct TreasureHunt.Lottery",
              "name": "lottery",
              "type": "tuple"
            }
          ],
          "internalType": "struct TreasureHunt.Game[]",
          "name": "",
          "type": "tuple[]"
        }
      ],
      "stateMutability": "view",
      "type": "function"
    },
    {
      "inputs": [
        {
          "internalType": "uint256",
          "name": "_gameId",
          "type": "uint256"
        }
      ],
      "name": "getLotteryInfo",
      "outputs": [
        {
          "internalType": "uint256",
          "name": "randomNumber",
          "type": "uint256"
        },
        {
          "internalType": "uint256",
          "name": "participantCount",
          "type": "uint256"
        },
        {
          "internalType": "address",
          "name": "winner",
          "type": "address"
        }
      ],
      "stateMutability": "view",
      "type": "function"
    },
    {
      "inputs": [],
      "name": "getPlayerCreatorRewardList",
      "outputs": [
        {
          "components": [
            {
              "internalType": "uint256",
              "name": "gameId",
              "type": "uint256"
            },
            {
              "internalType": "bool",
              "name": "isClaimed",
              "type": "bool"
            },
            {
              "internalType": "uint256",
              "name": "amount",
              "type": "uint256"
            }
          ],
          "internalType": "struct TreasureHunt.rewardDistribution[]",
          "name": "",
          "type": "tuple[]"
        }
      ],
      "stateMutability": "view",
      "type": "function"
    },
    {
      "inputs": [],
      "name": "getPlayerLotteryRewardList",
      "outputs": [
        {
          "components": [
            {
              "internalType": "uint256",
              "name": "gameId",
              "type": "uint256"
            },
            {
              "internalType": "bool",
              "name": "isClaimed",
              "type": "bool"
            },
            {
              "internalType": "uint256",
              "name": "amount",
              "type": "uint256"
            }
          ],
          "internalType": "struct TreasureHunt.rewardDistribution[]",
          "name": "",
          "type": "tuple[]"
        }
      ],
      "stateMutability": "view",
      "type": "function"
    },
    {
      "inputs": [],
      "name": "getPlayerWinnerPrizeList",
      "outputs": [
        {
          "components": [
            {
              "internalType": "uint256",
              "name": "gameId",
              "type": "uint256"
            },
            {
              "internalType": "bool",
              "name": "isClaimed",
              "type": "bool"
            },
            {
              "internalType": "uint256",
              "name": "amount",
              "type": "uint256"
            }
          ],
          "internalType": "struct TreasureHunt.rewardDistribution[]",
          "name": "",
          "type": "tuple[]"
        }
      ],
      "stateMutability": "view",
      "type": "function"
    },
    {
      "inputs": [],
      "name": "initFeeAmount",
      "outputs": [
        {
          "internalType": "uint256",
          "name": "",
          "type": "uint256"
        }
      ],
      "stateMutability": "view",
      "type": "function"
    },
    {
      "inputs": [
        {
          "internalType": "uint256",
          "name": "_gameId",
          "type": "uint256"
        }
      ],
      "name": "joinGame",
      "outputs": [],
      "stateMutability": "nonpayable",
      "type": "function"
    },
    {
      "inputs": [
        {
          "internalType": "address",
          "name": "",
          "type": "address"
        },
        {
          "internalType": "uint256",
          "name": "",
          "type": "uint256"
        }
      ],
      "name": "lotteryRewardList",
      "outputs": [
        {
          "internalType": "uint256",
          "name": "gameId",
          "type": "uint256"
        },
        {
          "internalType": "bool",
          "name": "isClaimed",
          "type": "bool"
        },
        {
          "internalType": "uint256",
          "name": "amount",
          "type": "uint256"
        }
      ],
      "stateMutability": "view",
      "type": "function"
    },
    {
      "inputs": [],
      "name": "owner",
      "outputs": [
        {
          "internalType": "address",
          "name": "",
          "type": "address"
        }
      ],
      "stateMutability": "view",
      "type": "function"
    },
    {
      "inputs": [],
      "name": "prizeToken",
      "outputs": [
        {
          "internalType": "contract IERC20",
          "name": "",
          "type": "address"
        }
      ],
      "stateMutability": "view",
      "type": "function"
    },
    {
      "inputs": [],
      "name": "renounceOwnership",
      "outputs": [],
      "stateMutability": "nonpayable",
      "type": "function"
    },
    {
      "inputs": [],
      "name": "stakingPool",
      "outputs": [
        {
          "internalType": "address",
          "name": "",
          "type": "address"
        }
      ],
      "stateMutability": "view",
      "type": "function"
    },
    {
      "inputs": [
        {
          "internalType": "address",
          "name": "newOwner",
          "type": "address"
        }
      ],
      "name": "transferOwnership",
      "outputs": [],
      "stateMutability": "nonpayable",
      "type": "function"
    },
    {
      "inputs": [],
      "name": "treasury",
      "outputs": [
        {
          "internalType": "address",
          "name": "",
          "type": "address"
        }
      ],
      "stateMutability": "view",
      "type": "function"
    },
    {
      "inputs": [
        {
          "internalType": "address",
          "name": "",
          "type": "address"
        },
        {
          "internalType": "uint256",
          "name": "",
          "type": "uint256"
        }
      ],
      "name": "userParticipationAmount",
      "outputs": [
        {
          "internalType": "uint256",
          "name": "",
          "type": "uint256"
        }
      ],
      "stateMutability": "view",
      "type": "function"
    },
    {
      "inputs": [
        {
          "internalType": "address",
          "name": "",
          "type": "address"
        },
        {
          "internalType": "uint256",
          "name": "",
          "type": "uint256"
        }
      ],
      "name": "winnerPrizeList",
      "outputs": [
        {
          "internalType": "uint256",
          "name": "gameId",
          "type": "uint256"
        },
        {
          "internalType": "bool",
          "name": "isClaimed",
          "type": "bool"
        },
        {
          "internalType": "uint256",
          "name": "amount",
          "type": "uint256"
        }
      ],
      "stateMutability": "view",
      "type": "function"
    }
  ],
  "bytecode": "0x60806040523480156200001157600080fd5b50604051620025c1380380620025c1833981016040819052620000349162000112565b6200003f33620000a5565b600a80546001600160a01b038087166001600160a01b0319928316178355600b8054878316908416179055600980548683169084161790556008805491851691909216179055620000939060069062000284565b60025550506001805550620002999050565b600080546001600160a01b038381166001600160a01b0319831681178455604051919092169283917f8be0079c531659141344cd1fd0a4f28419497f9722a3daafe3b4186f6b6457e09190a35050565b80516001600160a01b03811681146200010d57600080fd5b919050565b600080600080608085870312156200012957600080fd5b6200013485620000f5565b93506200014460208601620000f5565b92506200015460408601620000f5565b91506200016460608601620000f5565b905092959194509250565b634e487b7160e01b600052601160045260246000fd5b600181815b80851115620001c6578160001904821115620001aa57620001aa6200016f565b80851615620001b857918102915b93841c93908002906200018a565b509250929050565b600082620001df575060016200027e565b81620001ee575060006200027e565b8160018114620002075760028114620002125762000232565b60019150506200027e565b60ff8411156200022657620002266200016f565b50506001821b6200027e565b5060208310610133831016604e8410600b841016171562000257575081810a6200027e565b62000263838362000185565b80600019048211156200027a576200027a6200016f565b0290505b92915050565b6000620002928383620001ce565b9392505050565b61231880620002a96000396000f3fe608060405234801561001057600080fd5b50600436106102065760003560e01c8063a645a2b71161011a578063d0399bb8116100ad578063e379010e1161007c578063e379010e14610465578063e564f09814610478578063ef27105014610399578063efaa55a014610480578063f2fde38b1461049357600080fd5b8063d0399bb814610424578063d0ef024a14610437578063e038fbc01461044a578063e2abb1df1461045257600080fd5b8063ba2f0362116100e9578063ba2f0362146103c9578063c04c5947146103dc578063c9ee586a146103f1578063cdc601ee1461041157600080fd5b8063a645a2b714610391578063b25156ad14610399578063b3e1bcb2146103a1578063b6f10e32146103b657600080fd5b80635bdfe7901161019d578063732b0d441161016c578063732b0d441461033057806376b3c8a8146103385780637adcc14e1461036f5780637d84ab68146103785780638da5cb5b1461038057600080fd5b80635bdfe790146102fa57806361d027b314610302578063647846a514610315578063715018a61461032857600080fd5b80632018a58f116101d95780632018a58f146102835780633e22592a146102ae57806348e837b9146102b75780634d80052c146102cc57600080fd5b80630c56ae3b1461020b578063117a5b901461023b57806312b3e70e146102635780631bb412d61461027a575b600080fd5b60085461021e906001600160a01b031681565b6040516001600160a01b0390911681526020015b60405180910390f35b61024e610249366004611d37565b6104a6565b60405161023299989796959493929190611dbf565b61026c610e1081565b604051908152602001610232565b61026c60015481565b61026c610291366004611e3e565b600460209081526000928352604080842090915290825290205481565b61026c60025481565b6102ca6102c5366004611d37565b6105cc565b005b6102df6102da366004611e3e565b6107b2565b60408051938452911515602084015290820152606001610232565b61026c601281565b60095461021e906001600160a01b031681565b600b5461021e906001600160a01b031681565b6102ca6107f8565b61026c600681565b61034b610346366004611d37565b61080c565b6040805193845260208401929092526001600160a01b031690820152606001610232565b61026c61546081565b61026c601481565b6000546001600160a01b031661021e565b61026c603c81565b61026c600a81565b6103a961095c565b6040516102329190611e68565b6102ca6103c4366004611d37565b6109fc565b6102ca6103d7366004611d37565b610ae6565b6103e4610b35565b6040516102329190611ec3565b6104046103ff366004611f92565b610d26565b6040516102329190611fbe565b6102df61041f366004611e3e565b610fca565b6102ca610432366004611d37565b610fe6565b600a5461021e906001600160a01b031681565b6103a96113b9565b6102ca610460366004611d37565b61144d565b6102df610473366004611e3e565b611533565b6103a961154f565b6102ca61048e366004611d37565b6115e3565b6102ca6104a136600461200b565b611771565b60036020528060005260406000206000915090508060000160009054906101000a900460ff16908060010154908060020160009054906101000a90046001600160a01b0316908060030154908060040154908060050154908060060154908060070160009054906101000a90046001600160a01b03169080600801604051806060016040529081600082015481526020016001820160009054906101000a90046001600160a01b03166001600160a01b03166001600160a01b03168152602001600282018054806020026020016040519081016040528092919081815260200182805480156105be57602002820191906000526020600020905b81546001600160a01b031681526001909101906020018083116105a0575b505050505081525050905089565b600081116106315760405162461bcd60e51b815260206004820152602760248201527f5072697a6520616d6f756e74206d75737420626520677265617465722074686160448201526637103d32b9379760c91b60648201526084015b60405180910390fd5b60015460408051606080820183526000808352602083015291810191909152604051806101200160405280600015158152602001838152602001336001600160a01b03168152602001848152602001600081526020014281526020016106a2610e10426117ea90919063ffffffff16565b81526000602080830182905260409283018590528582526003808252918390208451815460ff1916901515178155848201516001820155848401516002820180546001600160a01b03199081166001600160a01b03938416179091556060870151948301949094556080860151600483015560a0860151600583015560c0860151600683015560e086015160078301805486169183169190911790556101008601518051600884019081558185015160098501805490971693169290921790945593830151805191949261077e92600a87019290910190611c15565b5050600180546107929450925090506117ea565b600155600a546107ad906001600160a01b03163330866117ff565b505050565b600560205281600052604060002081815481106107ce57600080fd5b600091825260209091206003909102018054600182015460029092015490935060ff909116915083565b610800611870565b61080a60006118ca565b565b6000818152600360208181526040808420815161012081018352815460ff161515815260018201548185015260028201546001600160a01b03908116828501529482015460608083019190915260048301546080830152600583015460a0830152600683015460c08301526007830154861660e0830152835190810184526008830180548252600984015490961681860152600a83018054855181880281018801875281815289988998899896979661010089019695929490860193929183018282801561090357602002820191906000526020600020905b81546001600160a01b031681526001909101906020018083116108e5575b5050509190925250505090525060408101519091506001600160a01b031661093d5760405162461bcd60e51b815260040161062890612026565b6101000151805160408201515160209092015190969195509350915050565b3360009081526005602052604090205460609061097857600080fd5b33600090815260056020908152604080832080548251818502810185019093528083529193909284015b828210156109f357600084815260209081902060408051606081018252600386029092018054835260018082015460ff161515848601526002909101549183019190915290835290920191016109a2565b50505050905090565b336000908152600760205260409020548110610a2a5760405162461bcd60e51b815260040161062890612054565b336000908152600760205260408120805483908110610a4b57610a4b612080565b60009182526020909120600390910201600181015490915060ff1615610ab35760405162461bcd60e51b815260206004820152601b60248201527f5468652072657761726420686173206265656e20636c61696d656400000000006044820152606401610628565b6001818101805460ff191690911790556002810154600b54610ae2916001600160a01b0390911690339061191a565b5050565b336000908152600660205260409020548110610b145760405162461bcd60e51b815260040161062890612054565b336000908152600660205260408120805483908110610a4b57610a4b612080565b60606001805411610b725760405162461bcd60e51b81526020600482015260076024820152664e6f206461746160c81b6044820152606401610628565b600060018054610b8291906120ac565b67ffffffffffffffff811115610b9a57610b9a6120bf565b604051908082528060200260200182016040528015610bd357816020015b610bc0611c7a565b815260200190600190039081610bb85790505b50905060015b600154811015610d2057600081815260036020818152604092839020835161012081018552815460ff161515815260018201548184015260028201546001600160a01b03908116828701529382015460608083019190915260048301546080830152600583015460a0830152600683015460c08301526007830154851660e0830152855190810186526008830180548252600984015490951681850152600a83018054875181870281018701895281815293979496610100890196939590949086019390929190830182828015610cd957602002820191906000526020600020905b81546001600160a01b03168152600190910190602001808311610cbb575b5050509190925250505090525082610cf26001846120ac565b81518110610d0257610d02612080565b60200260200101819052508080610d18906120d5565b915050610bd9565b50919050565b6000838152600360208181526040808420815161012081018352815460ff161515815260018201548185015260028201546001600160a01b03908116828501529482015460608281019190915260048301546080830152600583015460a0830152600683015460c08301526007830154861660e0830152835180820185526008840180548252600985015490971681870152600a840180548651818902810189018852818152939998949795966101008901969395949086019390929190830182828015610e1d57602002820191906000526020600020905b81546001600160a01b03168152600190910190602001808311610dff575b5050509190925250505090525060408101519091506001600160a01b0316610e575760405162461bcd60e51b815260040161062890612026565b82841115610e9c5760405162461bcd60e51b8152602060048201526012602482015271496e646578206f7574206f662072616e676560701b6044820152606401610628565b8281610100015160400151511115610eeb5760405162461bcd60e51b8152602060048201526012602482015271496e646578206f7574206f662072616e676560701b6044820152606401610628565b6000610f026001610efc868861194a565b906117ea565b67ffffffffffffffff811115610f1a57610f1a6120bf565b604051908082528060200260200182016040528015610f43578160200160208202803683370190505b509050845b848111610fc057826101000151604001518681518110610f6a57610f6a612080565b602002602001015182610f86888461194a90919063ffffffff16565b81518110610f9657610f96612080565b6001600160a01b039092166020928302919091019091015280610fb8816120d5565b915050610f48565b5095945050505050565b600660205281600052604060002081815481106107ce57600080fd5b600081815260036020526040902060028101546001600160a01b031661101e5760405162461bcd60e51b815260040161062890612026565b42816006015411156110655760405162461bcd60e51b815260206004820152601060248201526f23b0b6b29034b99037b733b7b4b7339760811b6044820152606401610628565b805460ff16156110b05760405162461bcd60e51b815260206004820152601660248201527523b0b6b2903430b9903132b2b71039b2ba3a3632b21760511b6044820152606401610628565b805460ff1916600117815560078101546001600160a01b0316158015906110db575060008160040154115b156113415760078101546001600160a01b0316600090815260056020908152604080832081516060810183526001808701548252818501868152600380890154958401958652845480840186559488529587209251939095029091019182559251928101805460ff1916931515939093179092555160029091015560048201546111739060649061116d90603c611956565b90611962565b90506000611194606461116d6014866004015461195690919063ffffffff16565b905060006111b5606461116d600a876004015461195690919063ffffffff16565b905060006111d6606461116d600a886004015461195690919063ffffffff16565b6002868101546001600160a01b0316600090815260066020908152604080832081516060810183526001808d015482528185018681529382018c8152835480830185559387529490952090516003909202019081559051928101805460ff19169315159390931790925551910155905061124e61196e565b60088601819055600a860180549091611266916119a7565b8154811061127657611276612080565b60009182526020808320909101546009880180546001600160a01b0319166001600160a01b039283169081179091558352600782526040808420815160608101835260018b8101548252818601878152938201888152835480830185559388529590962090516003909202019081559051938101805494151560ff19909516949094179093559051600290920191909155600854600b5461131c9290811691168561191a565b600954600b54611339916001600160a01b0391821691168461191a565b505050505050565b6002818101546001600160a01b031660009081526005602090815260408083208151606081018352600180880154825281850186815260039889015494830194855283548083018555938752949095209051919096029095019485559051918401805460ff1916921515929092179091555191015550565b336000908152600760205260409020546060906113d557600080fd5b336000908152600760209081526040808320805482518185028101850190935280835291939092840182156109f357600084815260209081902060408051606081018252600386029092018054835260018082015460ff161515848601526002909101549183019190915290835290920191016109a2565b33600090815260056020526040902054811061147b5760405162461bcd60e51b815260040161062890612054565b33600090815260056020526040812080548390811061149c5761149c612080565b60009182526020909120600390910201600181015490915060ff16156115045760405162461bcd60e51b815260206004820152601a60248201527f546865207072697a6520686173206265656e20636c61696d65640000000000006044820152606401610628565b6001818101805460ff191690911790556002810154600a54610ae2916001600160a01b0390911690339061191a565b600760205281600052604060002081815481106107ce57600080fd5b3360009081526006602052604090205460609061156b57600080fd5b336000908152600660209081526040808320805482518185028101850190935280835291939092840182156109f357600084815260209081902060408051606081018252600386029092018054835260018082015460ff161515848601526002909101549183019190915290835290920191016109a2565b600081815260036020526040902060028101546001600160a01b031661161b5760405162461bcd60e51b815260040161062890612026565b428160060154116116625760405162461bcd60e51b815260206004820152601160248201527023b0b6b2903430b99032bc3834b932b21760791b6044820152606401610628565b6007810180546001600160a01b0319163317905561168242610e106117ea565b6006820155600a810180546001810182556000918252602082200180546001600160a01b0319163317905560058201546008830191906116c390429061194a565b905060006116f56116d66006600a6121d2565b6116e284615460611962565b6116ec91906121de565b600254906117ea565b600485015490915061170790826117ea565b60048086019190915533600090815260209182526040808220888352909252205461173290826117ea565b3360008181526004602090815260408083208a8452909152902091909155600b5461176a916001600160a01b039091169030846117ff565b5050505050565b611779611870565b6001600160a01b0381166117de5760405162461bcd60e51b815260206004820152602660248201527f4f776e61626c653a206e6577206f776e657220697320746865207a65726f206160448201526564647265737360d01b6064820152608401610628565b6117e7816118ca565b50565b60006117f682846121f5565b90505b92915050565b6040516001600160a01b038085166024830152831660448201526064810182905261186a9085906323b872dd60e01b906084015b60408051601f198184030181529190526020810180516001600160e01b03166001600160e01b0319909316929092179091526119b3565b50505050565b6000546001600160a01b0316331461080a5760405162461bcd60e51b815260206004820181905260248201527f4f776e61626c653a2063616c6c6572206973206e6f7420746865206f776e65726044820152606401610628565b600080546001600160a01b038381166001600160a01b0319831681178455604051919092169283917f8be0079c531659141344cd1fd0a4f28419497f9722a3daafe3b4186f6b6457e09190a35050565b6040516001600160a01b0383166024820152604481018290526107ad90849063a9059cbb60e01b90606401611833565b60006117f682846120ac565b60006117f682846121de565b60006117f6828461221e565b6000611978611d04565b60208160008080738cc9c2e145d3aa946502964b1b69ce3cd066a9c7600019f16119a157600080fd5b51919050565b60006117f68284612232565b6000611a08826040518060400160405280602081526020017f5361666545524332303a206c6f772d6c6576656c2063616c6c206661696c6564815250856001600160a01b0316611a859092919063ffffffff16565b8051909150156107ad5780806020019051810190611a269190612246565b6107ad5760405162461bcd60e51b815260206004820152602a60248201527f5361666545524332303a204552433230206f7065726174696f6e20646964206e6044820152691bdd081cdd58d8d9595960b21b6064820152608401610628565b6060611a948484600085611a9c565b949350505050565b606082471015611afd5760405162461bcd60e51b815260206004820152602660248201527f416464726573733a20696e73756666696369656e742062616c616e636520666f6044820152651c8818d85b1b60d21b6064820152608401610628565b600080866001600160a01b03168587604051611b199190612293565b60006040518083038185875af1925050503d8060008114611b56576040519150601f19603f3d011682016040523d82523d6000602084013e611b5b565b606091505b5091509150611b6c87838387611b77565b979650505050505050565b60608315611be6578251600003611bdf576001600160a01b0385163b611bdf5760405162461bcd60e51b815260206004820152601d60248201527f416464726573733a2063616c6c20746f206e6f6e2d636f6e74726163740000006044820152606401610628565b5081611a94565b611a948383815115611bfb5781518083602001fd5b8060405162461bcd60e51b815260040161062891906122af565b828054828255906000526020600020908101928215611c6a579160200282015b82811115611c6a57825182546001600160a01b0319166001600160a01b03909116178255602090920191600190910190611c35565b50611c76929150611d22565b5090565b6040518061012001604052806000151581526020016000815260200160006001600160a01b031681526020016000815260200160008152602001600081526020016000815260200160006001600160a01b03168152602001611cff60405180606001604052806000815260200160006001600160a01b03168152602001606081525090565b905290565b60405180602001604052806001906020820280368337509192915050565b5b80821115611c765760008155600101611d23565b600060208284031215611d4957600080fd5b5035919050565b805182526020808201516001600160a01b03908116828501526040808401516060918601829052805191860182905260009390810192909184919060808801905b80841015611db357855183168252948401946001939093019290840190611d91565b50979650505050505050565b60006101208b151583528a602084015260018060a01b03808b1660408501528960608501528860808501528760a08501528660c085015280861660e08501525080610100840152611e1281840185611d50565b9c9b505050505050505050505050565b80356001600160a01b0381168114611e3957600080fd5b919050565b60008060408385031215611e5157600080fd5b611e5a83611e22565b946020939093013593505050565b602080825282518282018190526000919060409081850190868401855b82811015611eb657815180518552868101511515878601528501518585015260609093019290850190600101611e85565b5091979650505050505050565b60006020808301818452808551808352604092508286019150828160051b87010184880160005b83811015611f8457603f1989840301855281518051151584528781015188850152868101516001600160a01b0390811688860152606080830151908601526080808301519086015260a0808301519086015260c0808301519086015260e080830151909116908501526101009081015161012091850182905290611f7081860183611d50565b968901969450505090860190600101611eea565b509098975050505050505050565b600080600060608486031215611fa757600080fd5b505081359360208301359350604090920135919050565b6020808252825182820181905260009190848201906040850190845b81811015611fff5783516001600160a01b031683529284019291840191600101611fda565b50909695505050505050565b60006020828403121561201d57600080fd5b6117f682611e22565b60208082526014908201527323b0b6b2903237b2b9903737ba1032bc34b9ba1760611b604082015260600190565b602080825260129082015271696e646578206f7574206f662072616e676560701b604082015260600190565b634e487b7160e01b600052603260045260246000fd5b634e487b7160e01b600052601160045260246000fd5b818103818111156117f9576117f9612096565b634e487b7160e01b600052604160045260246000fd5b6000600182016120e7576120e7612096565b5060010190565b600181815b8085111561212957816000190482111561210f5761210f612096565b8085161561211c57918102915b93841c93908002906120f3565b509250929050565b600082612140575060016117f9565b8161214d575060006117f9565b8160018114612163576002811461216d57612189565b60019150506117f9565b60ff84111561217e5761217e612096565b50506001821b6117f9565b5060208310610133831016604e8410600b84101617156121ac575081810a6117f9565b6121b683836120ee565b80600019048211156121ca576121ca612096565b029392505050565b60006117f68383612131565b80820281158282048414176117f9576117f9612096565b808201808211156117f9576117f9612096565b634e487b7160e01b600052601260045260246000fd5b60008261222d5761222d612208565b500490565b60008261224157612241612208565b500690565b60006020828403121561225857600080fd5b8151801515811461226857600080fd5b9392505050565b60005b8381101561228a578181015183820152602001612272565b50506000910152565b600082516122a581846020870161226f565b9190910192915050565b60208152600082518060208401526122ce81604085016020870161226f565b601f01601f1916919091016040019291505056fea264697066735822122036ae2cddc9feffbbef8812bb1aaf8c650c0dd43e7a87cf3d8ceaf62786df02f664736f6c63430008130033",
  "linkReferences": {},
  "deployedLinkReferences": {}
}